:020000040800F2
:1000000000400020DD0F0008BF300008C1300008AC
:10001000C3300008C5300008C730000800000000E9
:10002000000000000000000000000000C9300008CF
:100030000000000000000000CB300008CD300008B8
:1000400025100008D53000082510000825100008EC
:100050002510000825100008493000082510000868
:10006000251000082510000825100008251000089C
:10007000251000082510000825100008251000088C
:10008000251000082510000825100008251000087C
:1000900025100008D13000082510000825100008A0
:1000A000251000082510000825100008053000085C
:1000B000251000082510000825100008251000084C
:1000C0002510000825100008CF3000082510000872
:0400D00025100008EF
:1001000010B5054C237833B9044B13B10448AFF351
:1001100000800123237010BDA00400200000000017
:100120009467000808B5034B1BB103490348AFF3BC
:10013000008008BD00000000A404002094670008AF
:1001400081F0004102E000BF83F0004330B54FEA88
:1001500041044FEA430594EA050F08BF90EA020FF5
:100160001FBF54EA000C55EA020C7FEA645C7FEA88
:10017000655C00F0E2804FEA5454D4EB5555B8BFAB
:100180006D420CDD2C4480EA020281EA030382EA1C
:10019000000083EA010180EA020281EA0303362DAE
:1001A00088BF30BD11F0004F4FEA01314FF4801C81
:1001B0004CEA113102D0404261EB410113F0004F93
:1001C0004FEA03334CEA133302D0524263EB43034A
:1001D00094EA050F00F0A780A4F10104D5F1200EE8
:1001E0000DDB02FA0EFC22FA05F2801841F1000143
:1001F00003FA0EF2801843FA05F359410EE0A5F117
:1002000020050EF1200E012A03FA0EFC28BF4CF047
:10021000020C43FA05F3C01851EBE37101F00045FD
:1002200007D54FF0000EDCF1000C7EEB00006EEB0A
:100230000101B1F5801F1BD3B1F5001F0CD3490894
:100240005FEA30004FEA3C0C04F101044FEA4452EB
:1002500012F5800F80F09A80BCF1004F08BF5FEA72
:10026000500C50F1000041EB045141EA050130BD52
:100270005FEA4C0C404141EB0101013C28BFB1F564
:10028000801FE9D291F0000F04BF01460020B1FAAF
:1002900081F308BF2033A3F10B03B3F120020CDA82
:1002A0000C3208DD02F1140CC2F10C0201FA0CF060
:1002B00021FA02F10CE002F11402D8BFC2F1200CC5
:1002C00001FA02F120FA0CFCDCBF41EA0C0190407B
:1002D000E41AA2BF01EB0451294330BD6FEA0404C4
:1002E0001F3C1CDA0C340EDC04F11404C4F12002AF
:1002F00020FA04F001FA02F340EA030021FA04F3C1
:1003000045EA030130BDC4F10C04C4F1200220FA17
:1003100002F001FA04F340EA0300294630BD21FA55
:1003200004F0294630BD94F0000F83F4801306BF1B
:1003300081F480110134013D4EE77FEA645C18BF0F
:100340007FEA655C29D094EA050F08BF90EA020FA6
:1003500005D054EA000C04BF1946104630BD91EA9E
:10036000030F1EBF0021002030BD5FEA545C05D1A1
:100370004000494128BF41F0004130BD14F58004E0
:100380003CBF01F5801130BD01F0004545F0FE4154
:1003900041F470014FF0000030BD7FEA645C1ABF89
:1003A000194610467FEA655C1CBF0B46024650EAC0
:1003B000013406BF52EA033591EA030F41F40021EC
:1003C00030BD00BF90F0000F04BF0021704730B572
:1003D0004FF4806404F132044FF000054FF0000147
:1003E00050E700BF90F0000F04BF0021704730B508
:1003F0004FF4806404F1320410F0004548BF4042DD
:100400004FF000013EE700BF42004FEAE2014FEA31
:1004100031014FEA02701FBF12F07F4393F07F4F0C
:1004200081F06051704732F07F4208BF704793F00F
:100430007F4F04BF41F40021704730B54FF4607422
:1004400001F0004521F000411CE700BF50EA010225
:1004500008BF704730B54FF000050AE050EA0102CE
:1004600008BF704730B511F0004502D5404261EB3E
:1004700041014FF4806404F132045FEA915C3FF47F
:10048000D8AE4FF003025FEADC0C18BF03325FEA1C
:10049000DC0C18BF033202EBDC02C2F1200300FACD
:1004A00003FC20FA02F001FA03FE40EA0E0021FAF2
:1004B00002F11444BDE600BF70B54FF0FF0C4CF4E0
:1004C000E06C1CEA11541DBF1CEA135594EA0C0F92
:1004D00095EA0C0F00F0DEF82C4481EA030621EACD
:1004E0004C5123EA4C5350EA013518BF52EA033508
:1004F00041F4801143F4801338D0A0FB02CE4FF0BA
:100500000005E1FB02E506F00042E0FB03E54FF0E9
:100510000006E1FB03569CF0000F18BF4EF0010EE1
:10052000A4F1FF04B6F5007F64F5407404D25FEADD
:100530004E0E6D4146EB060642EAC62141EA555190
:100540004FEAC52040EA5E504FEACE2EB4F1FD0CD2
:1005500088BFBCF5E06F1ED8BEF1004F08BF5FEA50
:10056000500E50F1000041EB045170BD06F0004602
:1005700046EA010140EA020081EA0301B4EB5C04AF
:10058000C2BFD4EB0C0541EA045170BD41F48011A7
:100590004FF0000E013C00F3AB8014F1360FDEBFCC
:1005A000002001F0004170BDC4F10004203C35DAA8
:1005B0000C341BDC04F11404C4F1200500FA05F32B
:1005C00020FA04F001FA05F240EA020001F00042CC
:1005D00021F0004110EBD37021FA04F642EB060142
:1005E0005EEA430E08BF20EAD37070BDC4F10C046C
:1005F000C4F1200500FA04F320FA05F001FA04F230
:1006000040EA020001F0004110EBD37041F100011B
:100610005EEA430E08BF20EAD37070BDC4F1200526
:1006200000FA05F24EEA020E20FA04F301FA05F28E
:1006300043EA020321FA04F001F0004121FA04F236
:1006400020EA020000EBD3705EEA430E08BF20EA06
:10065000D37070BD94F0000F0FD101F00046400040
:1006600041EB010111F4801F08BF013CF7D041EAC2
:10067000060195F0000F18BF704703F000465200C6
:1006800043EB030313F4801F08BF013DF7D043EA97
:100690000603704794EA0C0F0CEA135518BF95EA4D
:1006A0000C0F0CD050EA410618BF52EA4306D1D1D4
:1006B00081EA030101F000414FF0000070BD50EAF3
:1006C000410606BF1046194652EA430619D094EA7D
:1006D0000C0F02D150EA013613D195EA0C0F05D167
:1006E00052EA03361CBF104619460AD181EA0301BB
:1006F00001F0004141F0FE4141F470014FF0000073
:1007000070BD41F0FE4141F4780170BD70B54FF00D
:10071000FF0C4CF4E06C1CEA11541DBF1CEA13558D
:1007200094EA0C0F95EA0C0F00F0A7F8A4EB05046F
:1007300081EA030E52EA03354FEA013100F0888066
:100740004FEA03334FF0805545EA131343EA12632F
:100750004FEA022245EA111545EA10654FEA0026E4
:100760000EF000419D4208BF964244F1FD0404F59D
:10077000407402D25B084FEA3202B61A65EB0305F9
:100780005B084FEA32024FF480104FF4002CB6EBB6
:10079000020E75EB030E22BFB61A754640EA0C0036
:1007A0005B084FEA3202B6EB020E75EB030E22BF76
:1007B000B61A754640EA5C005B084FEA3202B6EBB7
:1007C000020E75EB030E22BFB61A754640EA9C0076
:1007D0005B084FEA3202B6EB020E75EB030E22BF46
:1007E000B61A754640EADC0055EA060E18D04FEA04
:1007F000051545EA16754FEA06164FEAC30343EAA4
:1008000052734FEAC2025FEA1C1CC0D111F4801F70
:100810000BD141EA00014FF000004FF0004CB6E769
:1008200011F4801F04BF01430020B4F1FD0C88BF08
:10083000BCF5E06F3FF6AFAEB5EB030C04BFB6EB13
:10084000020C5FEA500C50F1000041EB045170BD06
:100850000EF0004E4EEA113114EB5C04C2BFD4EB33
:100860000C0541EA045170BD41F480114FF0000EB7
:10087000013C90E645EA060E8DE60CEA135594EA33
:100880000C0F08BF95EA0C0F3FF43BAF94EA0C0F36
:100890000AD150EA01347FF434AF95EA0C0F7FF4AB
:1008A00025AF104619462CE795EA0C0F06D152EAFF
:1008B00003353FF4FDAE1046194622E750EA4106E3
:1008C00018BF52EA43067FF4C5AE50EA41047FF4F4
:1008D0000DAF52EA43057FF4EBAE12E74FF0FF3C59
:1008E00006E000BF4FF0010C02E000BF4FF0010C2A
:1008F0004DF804CD4FEA410C7FEA6C5C4FEA430CA3
:1009000018BF7FEA6C5C1BD001B050EA410C0CBFF1
:1009100052EA430C91EA030F02BF90EA020F002053
:10092000704710F1000F91EA030F58BF994208BFBA
:1009300090422CBFD8176FEAE37040F00100704777
:100940004FEA410C7FEA6C5C02D150EA013C07D1CE
:100950004FEA430C7FEA6C5CD6D152EA033CD3D019
:100960005DF8040B704700BF8446104662468C4613
:100970001946634600E000BF01B5FFF7B7FF002846
:1009800048BF10F1000F01BD4DF808EDFFF7F4FF6F
:100990000CBF012000205DF808FB00BF4DF808EDFA
:1009A000FFF7EAFF34BF012000205DF808FB00BF1D
:1009B0004DF808EDFFF7E0FF94BF012000205DF83F
:1009C00008FB00BF4DF808EDFFF7CEFF94BF0120F4
:1009D00000205DF808FB00BF4DF808EDFFF7C4FFED
:1009E00034BF012000205DF808FB00BF4FEA410240
:1009F00012F5001215D211D56FF47873B3EB625271
:100A000012D94FEAC12343F0004343EA505311F097
:100A1000004F23FA02F018BF404270474FF0000029
:100A2000704750EA013005D111F0004008BF6FF067
:100A3000004070474FF00000704700BF4A0011D2DD
:100A400012F5001211D20DD56FF47873B3EB625228
:100A50000ED44FEAC12343F0004343EA505323FA34
:100A600002F070474FF00000704750EA013002D1A9
:100A70004FF0FF3070474FF00000704753B94AB94C
:100A8000002908BF00281CBF4FF0FF314FF0FF3096
:100A900000F092B9ADF1080C6DE904CE00F024F835
:100AA000DDF804E0DDE9022304B07047D0B50C4B5B
:100AB000002206460F46FFF7FFFCFFF7BFFF044684
:100AC000FFF780FC074B0022FFF7F6FC02460B46BF
:100AD00030463946FFF738FBFFF7B0FF2146D0BD5F
:100AE0000000F03D0000F0412DE9F047089E0D4662
:100AF00004468846002B4DD18A42944668D9B2FA02
:100B000082F252B101FA02F3C2F1200120FA01F19E
:100B10000CFA02FC41EA030894404FEA1C45210C00
:100B2000B8FBF5FE1FFA8CF705FB1E8341EA034371
:100B30000EFB07F199420BD91CEB03030EF1FF30BA
:100B400080F01E81994240F21B81AEF1020E634497
:100B50005B1AA4B2B3FBF5F005FB103344EA03447F
:100B600000FB07F7A7420AD91CEB040400F1FF338E
:100B700080F00881A74240F2058164440238E41BFA
:100B800040EA0E4000211EB1D4400023C6E90043D4
:100B9000BDE8F0878B4208D9002E00F0EE800021DE
:100BA000C6E900050846BDE8F087B3FA83F10029DD
:100BB0004AD1AB4202D3824200F2F980841A65EB3B
:100BC000030301209846002EE2D0C6E90048DFE783
:100BD00002B9FFDEB2FA82F2002A40F09180A1EB66
:100BE0000C054FEA1C471FFA8CFE0121B5FBF7F3F9
:100BF00007FB1350250C45EA00450EFB03F0A84205
:100C000008D91CEB050503F1FF3802D2A84200F217
:100C1000CB8043462D1AA4B2B5FBF7F007FB105565
:100C200044EA05440EFB00FEA64508D91CEB04046B
:100C300000F1FF3502D2A64500F2BB802846A4EBA6
:100C40000E0440EA03409EE7C1F120078B4022FAE0
:100C500007FC4CEA030C20FA07F405FA01F31C43E5
:100C6000FD404FEA1C4900FA01F3B5FBF9F8200CEE
:100C70001FFA8CFE09FB185540EA054508FB0EF0EB
:100C8000A84202FA01F20BD91CEB050508F1FF3A64
:100C900080F08880A84240F28580A8F1020865446F
:100CA0002D1AA4B2B5FBF9F009FB105544EA05452D
:100CB00000FB0EFEAE4508D91CEB050500F1FF3424
:100CC0006CD2AE456AD90238654440EA0840A0FBC0
:100CD0000294A5EB0E05A542C846A64656D353D0AE
:100CE0005EB1B3EB080265EB0E0505FA07F722FAD1
:100CF00001F3CD401F43C6E900750021BDE8F08730
:100D0000C2F1200320FA03F10CFA02FC25FA03F3E6
:100D100095400D434FEA1C471FFA8CFEB3FBF7F1D9
:100D200007FB11302B0C43EA004301FB0EF0984205
:100D300004FA02F408D91CEB030301F1FF382FD2A7
:100D400098422DD9023963441B1AADB2B3FBF7F0B8
:100D500007FB103345EA034500FB0EF3AB4208D90D
:100D60001CEB050500F1FF3816D2AB4214D902384E
:100D70006544ED1A40EA014138E73146304607E75D
:100D80008646E5E61846FAE64B45A9D2B9EB0208D5
:100D900064EB0C0E0138A3E74046EAE7204694E7EF
:100DA0004146D1E7D0467BE7023B654432E708463F
:100DB00009E76444023842E7704700BF844641EACD
:100DC000000313F003036DD1403A41D351F8043BC3
:100DD00040F8043B51F8043B40F8043B51F8043B15
:100DE00040F8043B51F8043B40F8043B51F8043B05
:100DF00040F8043B51F8043B40F8043B51F8043BF5
:100E000040F8043B51F8043B40F8043B51F8043BE4
:100E100040F8043B51F8043B40F8043B51F8043BD4
:100E200040F8043B51F8043B40F8043B51F8043BC4
:100E300040F8043B51F8043B40F8043B51F8043BB4
:100E400040F8043B51F8043B40F8043B403ABDD223
:100E5000303211D351F8043B40F8043B51F8043BC5
:100E600040F8043B51F8043B40F8043B51F8043B84
:100E700040F8043B103AEDD20C3205D351F8043B54
:100E800040F8043B043AF9D2043208D0D2071CBF20
:100E900011F8013B00F8013B01D30B880380604649
:100EA000704700BF082A13D38B078DD010F00303BF
:100EB0008AD0C3F10403D21ADB071CBF11F8013B2F
:100EC00000F8013B80D331F8023B20F8023B7BE77E
:100ED000043AD9D3013A11F8013B00F8013BF9D2A9
:100EE0000B7803704B7843708B7883706046704743
:100EF00000000000000000000000000000000000F2
:100F000090F800F06DE9024520F007016FF0000C49
:100F100010F0070491F820F040F049804FF00004F1
:100F20006FF00700D1E9002391F840F000F10800CC
:100F300082FA4CF2A4FA8CF283FA4CF3A2FA8CF304
:100F40004BBBD1E9022382FA4CF200F10800A4FA6B
:100F50008CF283FA4CF3A2FA8CF3E3B9D1E90423BF
:100F600082FA4CF200F10800A4FA8CF283FA4CF3F6
:100F7000A2FA8CF37BB9D1E9062301F1200182FAB0
:100F80004CF200F10800A4FA8CF283FA4CF3A2FAB6
:100F90008CF3002BC6D0002A04BF04301A4612BAC4
:100FA000B2FA82F2FDE8024500EBD2007047D1E9C7
:100FB000002304F00305C4F100004FEAC50514F056
:100FC000040F91F840F00CFA05F562EA05021CBF27
:100FD00063EA050362464FF00004A9E7002103E03D
:100FE0000B4B5B58435004310A480B4B42189A4252
:100FF000F6D30A4A02E0002342F8043B084B9A4227
:10100000F9D300F023F804F0E1FF01F0FBFEFEE766
:1010100064720008000000209C040020A00400204E
:10102000EC0C0020FEE70000064B0748E02283F8A6
:101030002220C0210023C2180133252B82F800137F
:10104000F9D1704700ED00E000E100E00F4A08B57B
:10105000D2F8883043F47003C2F888304FF08042F1
:10106000D36843F08003D36002F50032536923F460
:10107000702343F48033536193689B07FCD5FFF7DB
:10108000D3FFBDE8084000F0D9BF00BF00ED00E08D
:1010900070472DE9F84F99460D9B15469A07DDE9F3
:1010A0000B4706468B4622D02A460A9901EB0408D4
:1010B0001444A2421FD10D9B9B0705D5A2EB050846
:1010C000474505EB08041FD82046BDE8F88F4B467E
:1010D00059462020B04708F10108B8450AEB08023C
:1010E000F5D33A1BBC4288BF00222A44DDE7A04664
:1010F000A5EB040AF1E702F1010A18F8010D4B46CD
:101100005946B0475246D4E74B462246594620201E
:10111000B04708F10108D3E72DE9F047DDE90D7686
:1011200016F0020FDDE90854DDE90BC89DF828E050
:101130001FD106F001094FB1B9F1000F06D0BEF181
:10114000000F02D116F00C0F00D0013F4FF0300A13
:1011500004E0202C04D005F804A00134A045F8D800
:101160004FF0300AB9F1000F03D0BC4201D21F2C5E
:1011700034D916F0100F1FD016F4806F33D194B30A
:10118000444501D0BC422ED1B4F101082AD0BCF1B3
:10119000100F33D1023C16F0200F31D11F2C15D87F
:1011A0004FF0780C05F804C001341F2C0ED84FF016
:1011B000300C05F804C001341F2C07D8BEF1000F15
:1011C00023D04FF02D0C05F804C00134CDE90A7688
:1011D000CDE90854BDE8F047FFF75BBF05F804A070
:1011E0000134BFE74446BCF1100FD4D0BCF1020F6C
:1011F000DBD11F2CEAD84FF0620CD3E74446F5E769
:101200001F2CE3D84FF0580CCCE716F0040F02D097
:101210004FF02B0CD7E716F0080FD7D04FF0200C6B
:10122000D1E72DE9F04391B0189D1A9E1D9F0DB98D
:1012300027F010077C0500D515B317F0200F14BF59
:101240004FF0410E4FF0610EAC460DF12008002525
:10125000AEF10A0EBCFBF6F906FB19C95FFA89F478
:10126000B9F1090F94BF30347444E4B2B44508F8BE
:10127000014BBCFBF6F405F1010501D3202D10D183
:101280001C9C05941B9C0697CDE903649DF8644063
:10129000CDE9015408AC0094FFF73EFF11B0BDE862
:1012A000F083A446D6E72DE9F04F2DED048B93B0E3
:1012B000DDE92065289F9A4656EA050308BF27F016
:1012C000100709EE102A7A05DDE924B908EE100AA4
:1012D00008EE901A02D556EA05033DD017F0200F0C
:1012E00014BF412361230A3B0DF128080024099310
:1012F0005A464B4630462946FFF7C0FBD2B2092A70
:101300008ABF099B3032D2185E45D2B275EB090311
:1013100008F8012B04F1010401D3202C19D1279BDB
:101320000593269B0697CDE903B39DF88830CDE958
:1013300001430AAB009319EE102A18EE901A18EE2A
:10134000100A5346FFF7E8FE13B0BDEC048BBDE86E
:10135000F08F06460D46CBE70024E0E700000000D2
:101360002DE9F04F2DED088B8DB01D46DDE920B342
:101370009DED1E7B0A93229B079208EE900AB0EE29
:10138000479AF0EE679A0C46069351EC170B53EC14
:10139000172BFFF7F9FA80B1CB4B51EC190B4FF03B
:1013A000FF32FFF719FB40B951EC190B4FF0FF3238
:1013B0006FF48013FFF7F2FA90B1069B22930A9B19
:1013C000079A18EE900ACDE920B321462B468DED01
:1013D0001E9B0DB0BDEC088BBDE8F04F00F08CB942
:1013E00051EC190B00220023FFF7D8FA002800F077
:1013F0003F8119EE903A19EE108A03F10049069BDD
:101400009FEDB27A9FEDB28A13F480630B93C9F318
:101410000A53A3F2FF3307EE903AC9F31302F8EE32
:10142000E77A42F07F51AB4B4FF00002404641F467
:10143000401108BF4FF0060BA7EE878AFEF784FE27
:101440009BA3D3E90023FFF737F8064618EE100AEE
:101450000F46FEF7D9FF02460B4630463946FEF7E7
:1014600075FEFFF7C3FA07EE900AB8EEE77ADFEDF4
:101470009A7AB6EE008AA7EE278A8246DFED977A3F
:10148000BDEEC88AF8EEC86A67EEE67ADFED946AC8
:10149000E7EE267A17EE900AFEF7B6FF02460B46F5
:1014A00006460F46FFF708F8324641EC1A0B3B465A
:1014B00030463946FEF74AFE8A4B41EC1B0B0022B0
:1014C00051EC1A0BFFF722F9874B0022FEF73EFE84
:1014D00002460B4651EC1A0BFFF718F9834B00221A
:1014E000FEF734FE02460B4651EC1A0BFFF70EF9DD
:1014F000324641EC1A0B3B4600204FF08041FEF78C
:1015000023FE02460B4651EC1A0BFEF71FFE024665
:101510000B4651EC1B0BFFF7F9F8754B0022FEF759
:1015200015FE18EE103A03F2FF3633050022FEF7DF
:10153000C3FF42464B4606460F46FFF74DFA0028CA
:1015400040F09980CDE908670AF16303C72B069B39
:1015500034BF04260526190523D557A3D3E9002354
:1015600040464946FFF72EFA002800F08F8054A32A
:10157000D3E9002340464946FFF710FA002800F05F
:101580008580069BD345C8BFABEB0A0B43F4806351
:101590004FF00006CCBF0BF1FF3B4FF0000B069362
:1015A000B2460A9B9E4238BF9F1B069B28BF00275E
:1015B00013F002030B9302D0002E18BF0027BAF1DC
:1015C000000F07D040464946DDE90823FFF79EF8A3
:1015D0008046894651EC190B00220023FFF7DEF903
:1015E00010B109F100439946069B079ACDF808B05F
:1015F00023F40063CDE90373CDE9008918EE900A66
:101600002B46214600F078F86EB3069B13F0200FAE
:1016100000F1010802462B4614BF452065202146F3
:1016200018EE907AB8470523059300220A238AEA28
:10163000EA70CDE90232A0EBEA704FEADA73013EBC
:10164000019300902B4618EE900A049642462146DC
:10165000FFF7E7FD0B9B33B1079BC61A079B981951
:101660000A9BB3421BD80DB0BDEC088BBDE8F08FD0
:1016700059EC198BC3E61C4B002230463946FFF764
:1016800045F80AF1FF3ACDE908015DE7BBF1000F2B
:1016900087D00B9B002B84D00BF1FF3B81E70246E8
:1016A00018EE907A2B4621462020B8470136D5E720
:1016B00000000060A787D23F000000E0E2361A3F3A
:1016C0000000000080842E41FFFFEF7F9B209A3EA8
:1016D0004451343E0000F83F789A54401872313F2C
:1016E0008E5D134000002C40000024400000184094
:1016F0000000F03F000000002DE9F04F2DED088BB9
:101700008FB0DDE920AB09EE103ADDE9225308EE97
:10171000100A08EE902A0F46049352465B46504644
:101720005946249EFFF730F9A0B9049B2293032366
:101730002193B94B2396209318EE902A19EE103A74
:1017400018EE100A39460FB0BDEC088BBDE8F04F1B
:10175000FFF79FBC4FF0FF326FF48013504659469D
:10176000FFF71CF930B1049B2293042321932396A5
:10177000AA4BE0E7AA4B4FF0FF3250465946FFF71D
:101780002BF970B1A74A0499239606F00403002BA5
:1017900008BF0322A44B1CBF13460422CDE921211C
:1017A000C9E799A3D3E9002350465946FFF714F936
:1017B00038B997A3D3E9002350465946FFF7EEF80E
:1017C00098B1049B2496CDE9225318EE902A19EE85
:1017D000103A18EE100A3946CDE920AB0FB0BDEC37
:1017E000088BBDE8F04FFFF7BBBD00220023504639
:1017F0005946FFF7D3F8002800F081805B46524637
:1018000000200021FEF7A0FC012382468B460593B1
:1018100016F4806F08BF062506ABA5F12002A94685
:101820003021B9F1090FA5EB090406D909F1FF39F7
:101830004A4503F8011BF4D1202459465046FFF7CE
:10184000D5F87A4B03EBC90393ED007B0546B0EE68
:1018500047AAF0EE67AAFEF7C5FD02460B465046C2
:101860005946FEF771FC53EC1A2BFEF725FE024693
:101870000B4643EC1B2BFFF7E1F88046FEF7A2FD79
:1018800002460B4651EC1B0BFEF75EFC02460B4674
:1018900043EC1B2B664B0022FFF79EF888B308F140
:1018A00001084046FEF78EFD02460B4651EC1A0B2E
:1018B000FFF77EF810B101354FF00008B9F1000FC5
:1018C00050D12846FEF78EFD02460B46504659463B
:1018D000FEF73AFC564B002280468946FFF75EF839
:1018E00030B1534B002240464946FFF775F810B11E
:1018F000E80700D5013506AB23440A2259E00590DC
:1019000086E74B4B51EC1B0B0022FFF747F80028F2
:10191000D4D1B8F1000F02D018F0010FCED008F1E9
:101920000108CBE7B8FBF1F001FB10823032B8F1CF
:10193000090F03F8012B09F1FF3904F1010428D83C
:10194000A14406AA3021202C11D04C4504F10103FA
:1019500021D104F138020DEB02042E2204F8202CD0
:101960001C46C8E706AB23440A21202CDAD106F036
:101970000303012B06AB39D1049A002A36D0059A0D
:1019800012B916F00C0F02D0049A013A04923022D8
:1019900014E08046E9E7A1541C46D4E795FBF2F138
:1019A00002FB1155303503F8015B01340D46002967
:1019B000DDD0202CF2D1DAE71A5501340499A14286
:1019C00014D9202CF8D1049A0093CDE9014219EEE4
:1019D000103A18EE902A18EE100A03963946FFF7CF
:1019E00058FB0FB0BDEC088BBDE8F08F202CEAD07F
:1019F000059AFAB104F138026A442D2102F8201C3C
:101A00000134E0E7AFF300800000000065CDCD4178
:101A10000000000065CDCDC1C9690008CD6900088E
:101A2000FFFFEF7FC4690008C0690008B0670008C5
:101A30000000E03F710704D504F138026A442B210D
:101A4000DCE73207BFD504F138026A442021D5E72C
:101A5000014610B1014801F0E3B870470030004082
:101A60002DE9F04F91B09B46B74B1A9E0029904646
:101A700014BF8146994600259BF8000058B945459A
:101A80002CBF08F1FF322A4643460020C8472846AB
:101A900011B0BDE8F08F25280BF1010B06D02A46C6
:101AA0006C1C43460A91C8472546B2E1002306E074
:101AB0002D2A14D0302A0CD143F001038346584616
:101AC00010F8012B2B2A0DD0F2D8202A0DD0232A72
:101AD0000ED0A2F13004092C29D8002710E043F0E1
:101AE0000203EBE743F00403E8E743F00803E5E70C
:101AF00043F01003E2E70A2404FB0727303F834644
:101B0000584610F8012BA2F13004092CF3D99BF8A8
:101B100000202E2A67D19BF80100A0F13004092C87
:101B20000BF1010243F4806353D8002411E02A2A08
:101B300008D156F8047B002FBCBF43F002037F425C
:101B40008346E4E70027E2E70A2202FB0404303C74
:101B5000624694461CF8010BA0F1300EBEF1090F4D
:101B6000F2D993465A4612F8010B6C2844D03CD85F
:101B700068284AD06A2852D05A4693461BF8010B6F
:101B800078288CD857284DD8452805D087D946289D
:101B900000F02C81472882D100F0DF02472A04BFE1
:101BA00000F0FD0043F40063452808BF43F0200324
:101BB000CDE90373073626F007060294F6E8022300
:101BC0004846CDE9002343462A460A91FFF7C8FB61
:101BD0001EE12A2806D156F8044B0BF1020B24EA29
:101BE000E474BFE793460024BCE7742801D07A2848
:101BF000C2D143F48073C0E79BF801006C28F8D190
:101C000043F440730BF10202B7E79BF80100682828
:101C100002D043F08003B0E743F0C003F2E743F49F
:101C20000073AAE7A0F15802202A3FF638AF0FF25E
:101C3000080C5CF822F000BFBD1C00089F1A0008C9
:101C40009F1A00089F1A00089F1A00089F1A000890
:101C50009F1A00089F1A00089F1A00089F1A000880
:101C6000BD1C0008171E0008BD1C0008991B0008B9
:101C7000F11D0008991B00089F1A0008BD1C0008F0
:101C80009F1A00089F1A00089F1A00089F1A000850
:101C90009F1A0008BD1C00086D1F00089F1A00084D
:101CA0009F1A0008971E00089F1A0008BD1C000814
:101CB0009F1A00089F1A0008BD1C0008782800F031
:101CC0006B81582800F066816F2800F067816228D8
:101CD00000F06681692823F010034FF00A0203D058
:101CE000642801D023F00C0313F4806F18BF23F095
:101CF0000103692803F4007C01D0642841D1BCF1C0
:101D0000000F23D0073626F00706B24676685AF849
:101D1000080B0694CDE9077300230593F30F002EFB
:101D200002930492034602DA434266EB4606CDE98B
:101D3000003643462A4648460A91FFF7B4FA0A9904
:101D40000546564698E600BF91100008D80506F1F2
:101D5000040A0CD53068CDE90224CDE904730028CB
:101D60004FEAD0730193B8BF4042009027E013F0D0
:101D7000400F306801D0C0B2EDE71E0648BF00B288
:101D8000E9E7BCF1000F0ED0CDE907730023CDE9E0
:101D90000423073626F0070A06940293FAE8022382
:101DA000CDE90023C5E7D80506F1040A0ED5CDE933
:101DB0000473CDE90224CDF804C033680093434690
:101DC0002A4648460A91FFF72CFAB8E713F0400F6D
:101DD000306807D0C0B2CDE904730023CDE90224F6
:101DE0000193C2E71E0648BF80B2F4E743F0200328
:101DF000CDE90373073626F007060294F6E80223BE
:101E00004846CDE9002343462A460A91FFF774FC71
:101E100005460A9930E613F0020426D04FF0010A75
:101E200056F8040B0B916B1C0A932A464346C0B22A
:101E3000C8470B996CB30A9A544620E00A9143466E
:101E40002020C8470A990AEB05020AF1010A574502
:101E5000F4D8002F07F1FF3308BF002307F1010A70
:101E60001D4408BF4FF0020ADAE7A246EBE70B91E8
:101E700043462020551CC8470B9901342A46BC42D2
:101E8000F5D30A9AA7EB0A03574538BF00231A4433
:101E90000A920A9DF0E5324652F8046B0A92414AD2
:101EA000002E08BF1646002C14BF22464FF0FF320A
:101EB0003244B4469CF8000008B1944511D113F4A3
:101EC0008062ACEB060A0B9202D0A24528BFA24664
:101ED00013F002030C931DD1AAEB05032A460E93BF
:101EE0000AE00CF1010CE5E7531C0D930F914346FA
:101EF0002020C8470D9A0F990E9BD3189F42F3D804
:101F0000A7EB0A03574538BF00230AF101021D441D
:101F100003EB020AAB1B0D9305E01C460E914346F2
:101F20002A46C8470E990D9B9D1916F8010B28B13A
:101F30000B9B002BF2D0631E002CEED10C9B9BB1AF
:101F40002A46AAEB050406E00B9143462020561CC6
:101F5000C8470B9932461319BB42F5D3A7EB0A03C6
:101F6000574538BF00231D440A9E85E543F02103F1
:101F700005930823CDE9034310220023CDE9013264
:101F800056F8043B00932A46434648460A91FFF719
:101F900048F93DE743F020031022A3E60822A1E61A
:101FA00002229FE6D26900080FB41FB506AA02A953
:101FB00052F8043B0392009204484FF0FF32FFF7BF
:101FC0004FFD05B05DF804EB04B07047511A0008EE
:101FD00003680A7A10B5446824F0700422434C7AEE
:101FE00023F080030CB143F0800303604B68426030
:101FF000C3620B68836210BD036801290CBF43F004
:10200000040323F0040303607047036819B143F02D
:1020100001030360704723F00103FAE7C368012955
:102020000CBF43F0010323F00103C3607047036951
:1020300031EA03030CBF01200020704708B50120DE
:1020400000F098F90C4B984214D90C4A0133B0FBBC
:10205000F3F313700A4A4FF47A73B0FBF3F04FF0C6
:10206000E0230138E021586182F8231000229A61B0
:1020700007221A6108BD00BF3F420F00BC040020C8
:1020800000ED00E030B50A4B4FF0E0211B784D69C0
:102090005BB18C69584300238A699442FCD0234485
:1020A00098BF5B199B1A834200D330BD1446F3E7F7
:1020B000BC0400204FF47A735843FFF7E3BF0000DD
:1020C000144B15499A68D20444BF4FF480529A6069
:1020D000124B134A99619A611A6802F4007242F035
:1020E00022021A60002299619A614FF0FF32026069
:1020F000084A9168C90405D54FF4805393606FF086
:10210000670070479A68D207FCD501229A600020C8
:10211000704700BF00F00040BFAE9D8C0000024041
:10212000161514132D4B2DE9F347154682189A42C4
:1021300006460F464FD82A4B98424CD3294B2A4C7F
:102140009A68D00444BF4FF480529A60274A284BC3
:10215000A261A361236803F4007343F024032360A6
:102160004FF00008A26125F0070905F00702C4F846
:1021700018804D4538BF42464FF0FF3A4944684603
:10218000CDE900AAFEF71AFE164A4346381D4FF065
:10219000010CAB4201D3002013E04B4535BFF95889
:1021A0000099E160E16034BFC1580199216143F8B1
:1021B00006A09168C90407D54FF4805393606FF06F
:1021C000670002B0BDE8F087A168C907FCD5C4F874
:1021D00008C00833DDE74FF0FF30F2E7FFFF0108EA
:1021E0000080000800F0004000000240BFAE9D8C5F
:1021F00016151413012310B58B40062A00F28280B5
:10220000DFE802F0040F1B293849630002681A4313
:10221000026082681A438260C26822EA0303C360D4
:1022200038E002681A43026082681A438260C2681A
:102230001A43C260026913430BE002681A4302604A
:1022400082681A438260C2681A43C260026922EA45
:10225000030303611EE0026822EA0302026082684F
:1022600022EA03028260426822EA03024260826933
:1022700013430EE0026822EA03020260826822EA47
:1022800003028260426822EA03024260826922EA13
:102290000303836110BD1F4CA0426FEA03020BD100
:1022A000072909D981691140816181680A408260EA
:1022B00002681A430260BDE701681140016081684D
:1022C0000A40826042681A43D0E7124CA0426FEA8B
:1022D00003020AD1072908D9816911408161816807
:1022E0001140816001680A40E4E701681140016023
:1022F00081681140816041680B43436083691A40E3
:102300008261C7E702681A430260826822EA030218
:1023100081E700BF00FC0140072910B511D90E4B21
:10232000083998420BBF01EB4101890007230F23B5
:102330008B4002FA01F1C26B22EA03031943C16325
:1023400010BD836B89000F248C4023EA040302FA3A
:1023500001F119438163F3E700FC0140044AD368AB
:1023600018B143F08003D360704723F08003FAE78D
:10237000008000404FF0804301461A6802F4E042BA
:10238000B2F5A04F20D015D8B2F5805F1ED0B2F5BF
:10239000005F1B4808BF4FF4004002291BD00329EF
:1023A00023D0012905D14FF080431B68C3F30323D9
:1023B000D8407047B2F5C04F0BD0114B1148B2F561
:1023C000E04F18BF1846E8E70F48E6E74FF4FA4039
:1023D000E3E70E48E1E74FF080421368C3F30323BD
:1023E000D8401368C3F34213E2E74FF0804213680A
:1023F000C3F30323D8401368C3F3C233D8E700BF45
:1024000000366E01006CDC020048E80180EE360008
:102410004FF08043986800F4C03070474FF080431D
:10242000986800F4C04070474FF08043986800F40B
:10243000C05070474FF08043986800F4C060704708
:102440004FF08043586800F00200704741284AD896
:10245000DFE810F011020702FD01E401D201B90129
:10246000710167015D01530149013F0135010D0112
:102470000301D600EA00E000CC004900C200B80029
:10248000AE00A30099008F0085006B00610057002B
:102490004D004200170121012B014900490049006C
:1024A00049004900490049004900490049004900E4
:1024B000490049002E0225021B02380295014900FD
:1024C00049004900490049004900490049004900C4
:1024D0004900490042024C024FF08043DA6819B1CA
:1024E00042F48012DA60704722F48012FAE74FF06B
:1024F0008043DA6811B142F40022F3E722F40022AB
:10250000F0E74FF08043DA6811B142F48022E9E746
:1025100022F48022E6E74FF08043DA6811B142F4FA
:102520000032DFE722F40032DCE74FF08043DA6864
:1025300079B142F48032DA604FF080439A6A02F057
:102540003F023F2AFAD15A6931B142F004025A617E
:10255000704722F48032EEE722F00402F7E74FF0F2
:102560008043DA6811B142F40042BBE722F4004232
:10257000B8E74FF08043DA6811B142F48042B1E726
:1025800022F48042AEE74FF08043DA6811B142F4A2
:102590000052A7E722F40052A4E74FF080431A69E3
:1025A00019B142F020021A61704722F02002FAE7C6
:1025B0004FF08043DA6811B142F4805292E722F47E
:1025C00080528FE74FF08043DA6811B142F4006225
:1025D00088E722F4006285E74FF08043DA6811B1A2
:1025E00042F480627EE722F480627BE74FF0804312
:1025F000DA6811B142F4807274E722F4807271E7F4
:102600004FF08043DA6811B142F020026AE722F00D
:10261000200267E74FF08043DA6811B142F0800290
:1026200060E722F080025DE74FF08043DA6871B125
:1026300042F04002DA604FF080439A6A02F03F02B3
:102640003F2AFAD15A6929B142F008027FE722F005
:102650004002EFE722F0080279E74FF08043DA68A2
:1026600011B142F010023DE722F010023AE74FF0BC
:102670008043DA6811B142F0007233E722F0007251
:1026800030E74FF08043DA6811B142F0807229E7F9
:1026900022F0807226E74FF08043DA6811B142F4ED
:1026A00000021FE722F400021CE74FF08043DA68C3
:1026B00011B142F4800215E722F4800212E74FF0D4
:1026C0008043DA6811B142F008020BE722F00802F9
:1026D00008E74FF08043DA6811B142F0040201E7E5
:1026E00022F00402FEE64FF08043DA6811B142F0B6
:1026F0000202F7E622F00202F4E64FF08043DA68C5
:1027000011B142F00102EDE622F00102EAE64FF0DB
:102710008043DA6811B142F00062E3E622F0006221
:10272000E0E64FF08043DA6811B142F08062D9E60A
:1027300022F08062D6E64FF080431A6979B142F404
:1027400000721A619A6A02F03F023F2AFAD15A696E
:1027500042F010025A611A6942F0100223E722F097
:1027600010021A619A6A02F03F023F2AFAD15A69AE
:1027700022F010025A611A6922F4007213E74FF036
:1027800080431A6979B142F480521A619A6A02F060
:102790003F023F2AFAD15A6942F020025A611A696F
:1027A00042F40062FFE622F400621A619A6A02F0C3
:1027B0003F023F2AFAD15A6922F020025A611A696F
:1027C00022F48052EFE64FF080431A6971B142F073
:1027D00008021A614FF080439A6A02F03F023F2AD2
:1027E000FAD15A6929B142F00102B0E622F008029A
:1027F000EFE722F00102AAE64FF080431A6931B1F7
:1028000042F004021A611A6942F04002CBE622F05B
:1028100004021A611A6922F04002C4E64FF08043B4
:102820001A6971B142F002021A614FF080439A6A4C
:1028300002F03F023F2AFAD15A6929B142F002025E
:1028400085E622F00202EFE722F002027FE64FF077
:102850008043DA6811B142F0805243E622F08052A0
:1028600040E64FF080431A6911B142F001029AE646
:1028700022F0010297E64FF080431A6911B142F04D
:10288000800290E622F080028DE64FF080431A69C4
:1028900011B142F4807286E622F4807283E64FF032
:1028A0008043DA6809B11A431CE622F0804219E637
:1028B0004FF08043DA6811B142F0005212E622F084
:1028C00000520FE64FF080431A6911B142F4806262
:1028D00069E622F4806266E64FF08043DA6811B15F
:1028E00042F40012FEE522F40012FBE54FF08043B3
:1028F000DA6811B142F00042F4E522F00042F1E55D
:1029000010B50C4605280ED8DFE800F003151F2887
:10291000345F374A3749936934B123F02003936118
:102920008B685B07FCD510BD43F0200393618B6877
:102930005C07FCD4F7E72E4A936819B123F40043EF
:102940009360F0E743F40043FAE7294A936811B132
:1029500023F4C043F4E743F4C043F1E7244A936906
:1029600023F0180319B143F008039361DBE743F048
:102970001003FAE701210E20FFF768FD1E4BD3F884
:102980000421CCB190060BD4D3F8042142F02002EC
:10299000C3F80421D3F8042122F08002C3F80421F3
:1029A000154BD3F8042142F00402C3F80421D3F8F4
:1029B00008219107FBD5B6E722F00402C3F80421F1
:1029C000D3F808219207FBD4ADE7094A0949936976
:1029D00034B123F0400393618B68002BFCDAA2E74B
:1029E00043F0400393618B68002BFCDB9BE700BF47
:1029F000008000400082004000900040034940F603
:102A0000FF53CA6A33EA0202FBD1704700E000407C
:102A100008B5FFF7F3FF054B1A6818B142F0807252
:102A20001A6008BD22F08072FAE700BF00E00040A3
:102A3000012808B50AD8FFF7E1FF054B1A680128FD
:102A40000CBF42F0007222F000721A6008BD00BF95
:102A500000E00040F8B5054600285ED0314B5F6BC2
:102A6000B9B25E6C5A6CB242FBD19C6C9A6CA242B9
:102A7000FBD15A6B92B29142F1D10029EFD0FFF70E
:102A8000DFFCBFB207EE907AB8EEE77AF6EE007A96
:102A9000002843D1DFED246AC6F3021306F00F02CB
:102AA00003EB830302EB4303EB71C6F3C223C6F3CC
:102AB000C31203EB830302EB4303AB71C6F3814301
:102AC00003EB8303C6F3833606EB4306C4F301131B
:102AD00004F00F0203EB830302EB43032B71C4F3F7
:102AE0008023C4F3831203EB830302EB4303E7EE7B
:102AF000267AEB70C4F3C223AB70C4F3834303EBB9
:102B00008303C4F38334FCEEE77A04EB430404F557
:102B1000FA64C5ED027A6E712C80F8BDDFED036AB0
:102B2000BAE700BF00E000400024F4410000FA4191
:102B3000402810B50C4608D0431EDBB21F2B09D825
:102B4000054A22FA03F3DB0704D5FFF757FF0CB958
:102B5000024BD86110BD00BF8B80008000E00040B8
:102B6000402808B508D0431EDBB21F2B0ED8084AF8
:102B700022FA03F3DB0709D5FFF740FF054BDB69BA
:102B800030EA03030CBF0120002008BD0020FCE751
:102B90008B80008000E0004080280AD0402808D0C8
:102BA000431EDBB21F2B0DD8074A22FA03F3DB07C3
:102BB00008D5012906D8054B9A6A0CBF104322EAB2
:102BC00000009862704700BF8B80008000E00040EA
:102BD00008B518B1FFF712FF014B986108BD00BF9F
:102BE00000E00040BFF34F8F0449054BCA6802F470
:102BF000E0621343CB60BFF34F8FFEE700ED00E0D0
:102C00000400FA0530B1054BDA6A02601B6B4360C1
:102C1000002070474FF0FF30704700BF00000240B7
:102C200083699B06FCD401607047836B1AB923EA61
:102C30000101816370471943FBE74FF4E1330360FF
:102C4000602383804FF0407200238371826003739E
:102C50007047036B19B143F001030363704723F01E
:102C60000103FAE7036C0B4214BF012000207047F8
:102C70004164704738B5036B23F001030363C36AF3
:102C800023F01003C36200238363464B984204463B
:102C90000D463ED1FFF7BCFBC00B0138022850D8CF
:102CA000414B53F820002B68B0EB031F4FEA031190
:102CB00075D36BB1B0FBF1F201FB1200C000B0FBA9
:102CC000F3F000F0010303EB500080B240EA02434E
:102CD0001A0C03F03F036262A362E36A2A7923F0CD
:102CE00060031343E362E36AAA7923F00803134302
:102CF000E3622B7B8BB3E36A43F01003E3626B79EF
:102D0000012B2ED0022B42D09BBBE36A23F002039F
:102D10002EE0B0F1402F04D1FFF780FBC0F34F301D
:102D2000BBE7224B984204D1FFF77EFBC0F3CF20D4
:102D3000B3E71F4B98420ED1FFF77CFBC0F34F2047
:102D4000ABE7184B9C4202D0B4F1402F03D10220D4
:102D5000FFF710FBA7E70320FAE7E36A23F010036D
:102D6000CCE7E36A43F00203E362E36A23F004037F
:102D7000E362236B6A8923F4407313432363236B59
:102D80002A8923F4404313432363002038BDE36AB8
:102D900043F00203E362E36A43F00403E8E74FF021
:102DA000FF30F3E7003000400068000800000140F9
:102DB00000100140084B094AC3F8002C0322186098
:102DC0009A60074AC3F8002C4FF08042536A43F0E0
:102DD00010035362704700BF00E0014051E5CC1A78
:102DE000AE1A33E5044B054AC3F8002C0122DA6021
:102DF000034AC3F8002C704700E0014051E5CC1AAB
:102E0000AE1A33E5F0B5012185B01120FFF71EFBA6
:102E100001210220FFF774FD01211F20FFF716FB9F
:102E200001210820FFF712FB01210720FFF70EFB0D
:102E300001210C20FFF70AFB01210B20FFF706FB05
:102E400001210D20FFF702FB01212020FFF7FEFAF0
:102E500001212120FFF7FAFA01212220FFF7F6FADB
:102E600001214120FFF7F2FA01210020FFF7EEFADD
:102E700001210E20FFF7EAFA6420FFF71BF9012178
:102E80000420FFF7E3FA0220FFF774FA4FF4FA6325
:102E9000B0FBF3F042F210734C4C4D4E5843FFF729
:102EA00089FF042323600120FFF758FA01211F2026
:102EB000FFF7CCFA012211464648FFF72DFA01220E
:102EC00000214448FFF728FA6846FFF7B6FE424B58
:102ED000424800936946FFF7CDFE40480122102189
:102EE000FFF7A3FE01223D484021FFF79EFE3B482D
:102EF0000121FFF7AEFE402540F2E732172325609F
:102F0000374884F806536946CDE900234FF48873A7
:102F1000ADF80830FFF75CF831480121FFF76CF895
:102F20002F480121FFF77AF801212D48FFF76DF8AE
:102F30004FF00063236084F81B534FF080446420FB
:102F4000A369284D23F48043A361FFF7B3F8A36975
:102F500043F48043A36102F0D1FE03F007F8F08848
:102F60000A23B0FBF3F203FB120080B26423584340
:102F7000FFF7A0F800F000F9FFF734FF2B6893B1DA
:102F80000123194C194F8DF80030204604F5805468
:102F9000FFF796F8BC42F8D1154801226946FFF7C1
:102FA000C1F802232B60337A022B03D12B680BB9B3
:102FB00002F018FB0F4A104B126810491048FEF738
:102FC000F3FF00F0AFF9002005B0F0BD00E100E034
:102FD000CC09002000F4014040420F0000300040C6
:102FE00000C00040AC0C00200000010800D0010827
:102FF00010E00008C0040020D9690008DE6900085C
:10300000E069000808B50B480121FFF710F878B116
:10301000094A13680133136013794BB10133DBB2F2
:10302000042B83BF002313710123137188BF5371D5
:1030300008BD00BF00C00040C0040020014B18685C
:10304000704700BFC004002010B5104C102120466E
:10305000FFF708FE70B110212046FFF709FE0C4B68
:10306000216893F80621501C1A4483F806019171D7
:1030700001221A7105484021FFF7F4FD28B1BDE88F
:10308000104002484021FFF7F3BD10BD0030004062
:10309000C004002010B54FF080446420A36923F4DD
:1030A0008043A361FFF706F8A36943F48043A3615B
:1030B0000A20FEF7FFFFBDE8104000F05DB8704742
:1030C000FEE7FEE7FEE7FEE7704770477047704790
:1030D00001F092BD00F0BCBA034B04221A70034BFE
:1030E00000205B6B184700BFC8050020546900082A
:1030F000034B05221A70034B00205B6B184700BF7F
:10310000C805002054690008034B02221A70034BC3
:1031100000205B6B184700BFC805002054690008F9
:10312000034B03221A70034B00205B6B184700BF50
:10313000C8050020546900082DE9F0411F460B4BDB
:103140000B4CDB6A0E468046154698473246414690
:103150002046FDF733FE074AA4F80B5101235570B2
:103160009770137084F80061BDE8F081546900081D
:10317000B9080020C80500202DE9F047374C384F2A
:10318000384D8CB0201DFFF73DFD374BE360374BCA
:103190006361374B2361374BA361374BE36104F124
:1031A0000C003B6898476C7AFB68D7E9068964B3E2
:1031B000324800249847012540F6B8334FF0080AFA
:1031C0000726CDE90743224623461621CDE90544CB
:1031D000CDE90345CDE9015A00962846C847CDE917
:1031E0000845CDE90644CDE90445CDE90244CDE9E1
:1031F000004A2B46324621461846C0477B6B0B934C
:1032000000200CB0BDE8F047184729781C4A1D483B
:1032100000FB01209847012640F6B8334FF0080A1A
:10322000CDE90743CDE90544CDE90346CDE9016A7F
:10323000EB780093AB78224616213046C847CDE99B
:103240000846CDE90644CDE90446CDE90244CDE97E
:10325000004A3346EA78A978CEE700BFC8050020C7
:1032600054690008CC090020D93000083931000821
:10327000F1300008093100082131000880A1031C49
:103280000026221C400D030038B50A4D0A4C2B6E57
:1032900098472278012AD3B205D0023B032B01D8EC
:1032A0000023237038BD02F027FA6B6B002098478B
:1032B000F6E700BF54690008C805002073B5144C38
:1032C000144E40F2F5152378042B14D02378052BE7
:1032D00011D0336E98470120FEF7ECFE013DF2D18C
:1032E000FFF7ACFE0C4B0D4902460D48FEF75CFEA5
:1032F000A36A0133A362A36A0A2B01D9FFF772FC08
:10330000736B0193002002B0BDE87040184700BF06
:10331000C805002054690008F86900088C6D000891
:10332000046A00084D4C4E4D8FB500234D4F23804D
:1033300023812382238823B12C2B09D000232380CF
:103340000CE0FFF7A1FFFFF779FE2C2360602380DC
:10335000FFF774FE6368C01A0428F2D8238923B1EA
:103360003F2B47D0002323814BE002F04DFA2B681E
:10337000002B38D0AB6B0133032BAB6314D96B6BD1
:1033800001336B6315238DF80C30FFF757FE364978
:1033900002463B463548FEF707FE0123009303AA89
:1033A0005221002002F040F96B6B052B1BDD3C2203
:1033B0000021284602F062FE18238DF80C308DF8AB
:1033C0000D30FFF73BFE284902463B462848FEF7F2
:1033D000EBFD0123009303AA02235221002002F0F7
:1033E00023F9FFF7FFFBFFF7FDFCFFF727FE3F2365
:1033F000E0602381FFF722FEE368C01AB0F57A7F10
:10340000B3D2238A23B1572B21D00023238291E703
:10341000184EB378552B0BD1F378AA2B08D196F818
:103420000211052904D90239C9B2301D01F03AFE52
:10343000114801F05BFE10484FF48072002102F049
:103440001DFE002386F80231737057232382094B37
:103450005B78002B3FF46EAFDAE700BFF405002085
:10346000AC0C0020256A00088C6D0008296A000851
:10347000436A0008C4040020C604002070B5052873
:1034800086B038BF052003AC05462046FFF7E2FAB8
:1034900094E807001A4C6B4683E8070084E80700AD
:1034A0000020FFF7B5FAFEF7CBFF0228284614BF2D
:1034B0004FF400464FF4FA46FCF784FF04463046CA
:1034C0000D46FCF77FFF02460B4620462946FCF7D7
:1034D000F3FF0C4B0022FDF719F903F011F9FDF78A
:1034E000E5FAFFF775FB0120FFF7A2FA0120FFF7CD
:1034F0008FFA0121102006B0BDE87040FFF74CBBE9
:103500001406002000408F40014BD3E904017047AE
:10351000100600202DE9F04F87B003A8FFF79AFAB4
:10352000BDF80C40059A9DF80FC09DF810509DF80D
:1035300011309DF812709DF813E0DFF8DC80DFF8A1
:10354000DC900192002631463246A4F5FA6A30B288
:1035500050451FFA86FB15DB14F003040CF1FF3C09
:1035600051D02B4EDFF8AC800024E0B2604504F16E
:1035700001041FDA3044007B08FB00F0411842F1DF
:103580000002F2E710B11BF0030F05D111EB0801A7
:1035900042F100020136DAE711EB0901F8E7305C8D
:1035A00008FB00F0411842F10002E0B2604504F16E
:1035B0000104F4DB4FF461603C24A7FB0474A3FB1B
:1035C0000003C01943EB040310EB0E0E05F1FF30AE
:1035D000104D05FB00F043F100031EEB000043F12A
:1035E0000003401842EB03024FF47A73A0FB03017F
:1035F00003FB0211019AB2FBF3F3C01841F1000181
:1036000007B0BDE8F08F024EDFF80880CDE700BFBD
:103610000C680008805101000085E2018033E1015F
:1036200038B5FFF777FF034B04460D46C3E9044561
:1036300038BD00BF1006002008B5FFF76BFF034A36
:10364000D2E90432C01A61EB020108BD1006002065
:1036500008B51020FFF784FA90B10020FFF7D8F9E1
:1036600000211020FFF798FA00211020FFF760FAE0
:1036700000F0B6F9BDE8084001211020FFF78CBA30
:1036800008BD72B6704762B670470000044B986080
:10369000DA6802F01102012AFAD19868C0B27047C4
:1036A0000090004010B5134C4FF40073C4F8003183
:1036B0000723236002232361D4F80431802B0BD02D
:1036C0001420FEF7DFFC0023C4F80C311420FEF7B1
:1036D000D9FC0123C4F80C31064B074802225A607A
:1036E000064B4FF400121A60BDE8104003220B2174
:1036F000FEF712BE0090004000FC014000E100E037
:103700000520704710B5134CD4F8043123F0200382
:10371000C4F804316420FEF7B5FCD4F8043143F05A
:103720002003C4F80431D4F8043123F08003C4F832
:103730000431D4F8003143F02003C4F80031D4F848
:10374000043143F00103C4F80431D4F80831DB0537
:10375000FBD410BD0090004008B50A20FEF792FC93
:10376000024AD2F80831DB05FBD408BD00900040C6
:1037700038B572B6094C0025C4F80C511420FEF778
:1037800081FCC020FFF782FF2846FFF77FFF01235F
:10379000C4F80C31FFF7E0FF62B638BD009000407E
:1037A000F8B50F4F154606460C4600F05FF90023AA
:1037B000C7F80C313046FFF769FF2544AC4208D109
:1037C0000123842EC7F80C3108D0BDE8F840FFF77C
:1037D000C3BF14F8010BFFF759FFEFE7F8BD00BFB7
:1037E0000090004073B5104E019015460C4600F055
:1037F0003DF900210198C6F80C11FFF747FF084674
:10380000FFF744FF2544AC4207D10123C6F80C3131
:1038100002B0BDE87040FFF79FBF0020FFF736FF02
:1038200004F8010BEFE700BF00900040F8B5104F1F
:10383000154606460C4600F019F90023C7F80C316E
:103840000D20FFF723FF300AFFF720FFF0B2FFF74C
:103850001DFF2544AC4206D10123C7F80C31BDE859
:10386000F840FFF779BF14F8010BFFF70FFFF1E7FE
:103870000090004007B501228DF807100DF10701F7
:10388000FFF7D4FF03B05DF804FB0000F8B5124F5A
:10389000154606460C4600F0E9F80021C7F80C1161
:1038A0001D20FFF7F3FE300AFFF7F0FEF0B2FFF73E
:1038B000EDFE0846FFF7EAFE2544AC4206D101239F
:1038C000C7F80C31BDE8F840FFF746BF0020FFF70E
:1038D000DDFE04F8010BF0E70090004007B501227F
:1038E0000DF10701FFF7D2FF9DF8070003B05DF867
:1038F00004FB0000F8B50F4F154606460C4600F0D5
:10390000B5F80023C7F80C310E20FFF7BFFE304694
:10391000FFF7BCFE2544AC4206D10123C7F80C31A9
:10392000BDE8F840FFF718BF14F8010BFFF7AEFE33
:10393000F1E700BF00900040F8B5114F154606466C
:103940000C4600F093F80021C7F80C111E20FFF779
:103950009DFE3046FFF79AFE0846FFF797FE254486
:10396000AC4206D10123C7F80C31BDE8F840FFF79F
:10397000F3BE0020FFF78AFE04F8010BF0E700BF5A
:1039800000900040022100F07FBA02207047000042
:10399000024803220A21FEF72DBC00BF00F00140BF
:1039A000024804220A21FEF725BC00BF00F00140B6
:1039B000FEF780BB10B5FFF7A7FD0446FFF730FE0A
:1039C000064B1B68011B241A03B910BD1A688A42F2
:1039D0008CBF121900221A605B69F5E730060020DF
:1039E00070B51B4CFFF7E6FF236843B15A692260AC
:1039F00000221A72DA6802B9FEE7186990470025BA
:103A000023683BB9FFF7D6FF2368B3B970BD1869C7
:103A10009047F5E71E68FFF70FFE864275EB01033E
:103A200003D323681B68002BECD123685A692260FA
:103A3000DA681D72002AEAD1FEE75A7A002AE5D137
:103A40000122BDE8704018685A72FFF717BD00BF29
:103A500030060020014B1878704700BF4406002054
:103A6000014B1870704700BF4406002008B5074B93
:103A70001A7812B11B78062B03D1FFF779FEFFF7F6
:103A800087FFBDE80840FFF767BE00BF440600207F
:103A90000A4601460020FFF72DBF08B5014608225F
:103AA0004FF4D860FFF7C2FE002008BD07B5030A37
:103AB0008DF80430064B8DF805005B782BB9022297
:103AC00001A940F2BC60FFF7B1FE03B05DF804FB52
:103AD0004406002007B5030A8DF80430064B8DF824
:103AE00005005B782BB9022201A940F2BE60FFF706
:103AF0009DFE03B05DF804FB4406002010B50C4B9E
:103B00005B7804469BB94FF4D760FFF7E7FEC4F338
:103B1000002100F0FE0001434FF4D760FFF7AAFE3A
:103B2000E1B240F2B960BDE81040FFF7A3BE10BD9E
:103B30004406002007B58DF80400FFF731FF01228D
:103B400001A98420FFF72CFE024B00221A7003B05B
:103B50005DF804FB4406002007B501228DF807003C
:103B60000DF107018020FFF71BFE9DF80720044B95
:103B700022B901221A7003B05DF804FB0222F9E7B2
:103B80004406002007B5094B8DF8060004221A7080
:103B9000030C8DF804300322030A01A983208DF859
:103BA0000530FFF7FDFD03B05DF804FB440600207F
:103BB00010B51446FFF76CFF2046BDE81040FFF734
:103BC000E1BF000007B5094B8DF8060005221A7009
:103BD000030C8DF804300322030A01A982208DF81A
:103BE0000530FFF7DDFD03B05DF804FB440600205F
:103BF00013B50C4B04460522962140F6AC001A7012
:103C0000FFF738FE230C8DF804300322230A01A9A4
:103C100082208DF805308DF80640FFF7C1FD02B017
:103C200010BD00BF4406002007B5030C8DF800301E
:103C3000030A8DF801300B0C8DF802008DF803306B
:103C40008DF805100B0A0622694694208DF8043081
:103C5000FFF7A6FD024B06221A7003B05DF804FBC5
:103C600044060020002208B51146C520FFF798FD44
:103C7000014B07221A7008BD44060020002211469D
:103C8000D120FFF78DBD07B501228DF807000DF19A
:103C900007019F20FFF784FD03B05DF804FB07B523
:103CA00001228DF807000DF10701A020FFF778FD34
:103CB00003B05DF804FB07B501228DF807000DF194
:103CC00007019620FFF76CFD03B05DF804FB0000D0
:103CD000184B984207B50DD9E1238DF80430E9233C
:103CE0008DF80530022201A99820FFF759FD03B095
:103CF0005DF804FB104B984204D9D7238DF80430AB
:103D0000D823EDE70D4B984204D9C1238DF8043038
:103D1000C523E5E70A4B984204D975238DF8043092
:103D20008123DDE7074B9842DCD96B238DF8043003
:103D30006F23D5E700E9A43580F8A9328044E52D4A
:103D4000000B6B1B40FC541907B58DF806200422AC
:103D50008DF804008DF8051095200DEB02018DF80B
:103D60000730FFF71DFD03B05DF804FB13B5040A2F
:103D70008DF801008DF80310080A8DF80520110A4E
:103D80001A0A8DF8062008228DF802008DF804101A
:103D9000104669468DF800408DF80730FFF700FDAA
:103DA00002B010BD07B5022201A91220FFF71AFDCB
:103DB000BDF8040040BA80B203B05DF804FB07B55B
:103DC00001228DF807000DF107019D20FFF7E8FCA7
:103DD00003B05DF804FB000008B5FFF763FCFFF7D4
:103DE00091FCFFF7C5FC0020FFF7B6FE0120FFF7AE
:103DF000E6FF024B01221A7008BD00BF44060020F6
:103E000037B5154DAB7804461BB9FFF761FF0123A9
:103E1000AB702046FCF7D6FA0DA3D3E90023FCF7DC
:103E200075FCFCF70BFE030E8DF804300422030C26
:103E30008DF805308DF80700030A0DEB020186208E
:103E40008DF80630FFF7ACFC03B030BDAFF3008057
:103E5000000000008084EE3F4406002007B5064BBA
:103E60008DF80700587001220DF107018A20FFF735
:103E700097FC03B05DF804FB44060020014B587822
:103E8000704700BF4406002037B5044600200D46A9
:103E9000FFF77BFD0128034620D10F2C02464FF08F
:103EA00000010CBF06200420FFF74EFF6FF0020058
:103EB0008442B8BF04460E2CA8BF0E24182140F639
:103EC000E700FFF7D7FC022201A98E208DF80440FD
:103ED0008DF80550FFF764FC03B030BD40F6D80004
:103EE000FFF7FCFC40F01E00C1B240F6D800FFF71F
:103EF000C1FC134B1878022818D0032806D00128DB
:103F000018D1034600220521032003E002210123EA
:103F100000220846FFF718FF6FF002008442B8BF86
:103F20000446162CA8BF16243821C8E70123002216
:103F30000321EFE70123002207210420EAE700BF65
:103F40002D0600200000000013B52F4A04465168DA
:103F500010686B4603C32D4B20785B78834201D0F9
:103F6000FFF77CFF23781BB1012B37D002B010BDC7
:103F70006068FCF727FA02460B461FA1D1E9000151
:103F8000FCF7C4FB0022224BFCF796FAFCF756FD27
:103F9000030C8DF80030030A8DF80130237B8DF877
:103FA00002008DF80330A068637B8DF80430FCF7C5
:103FB00009FA13A3D3E90023FCF7A8FBFCF73EFDA5
:103FC000030C8DF80530030A8DF806308DF80700D4
:103FD000082269468B20FFF7E3FBC7E7237C8DF8B7
:103FE0000030637C8DF80130A37C8DF80230E37CD7
:103FF0008DF803300422ECE70000000080847E414D
:10400000000000008084EE3F246800084406002081
:10401000000040401FB5304A0446D1689068127CC9
:1040200001AB03C31A702D4B20785B78834201D01B
:10403000FFF714FF23781BB1012B39D004B010BD5A
:10404000637AF12B28D14FF6FF70FFF72FFD48F26E
:104050000500FFF73FFD022362888DF80520110A55
:1040600022798DF8062062798DF80720A2798DF8E3
:104070000820E2798DF809208DF80B30227AA37A96
:104080008DF80A208DF804108DF80C30092201A952
:104090008C20FFF785FBD1E7F22BDDD141F60F50E5
:1040A000FFF704FD41F22100FFF714FD0623D3E7DB
:1040B000A3898DF805301A0AA37B8DF80630E37BBF
:1040C0008DF80730237C8DF80830637C8DF8042050
:1040D0008DF809300622DAE724680008440600203B
:1040E00013B5049C8DF80330230C8DF800008DF877
:1040F00001108DF802208DF804300522230A69464C
:1041000088208DF805308DF80640FFF749FB024BFB
:1041100007221A7002B010BD4406002007B5022223
:104120008DF804008DF805108F2001A9FFF738FBEA
:1041300003B05DF804FB07B5012201A91520FFF7C4
:1041400051FB9DF804004042401003B05DF804FBB1
:1041500037B504460D46022201A91320FFF742FBA2
:104160000C4B5B78012B11D140F20470FFF7B6FBCA
:10417000C0F3C710012809D140F20270FFF7AEFB6F
:1041800020709DF805302B7003B030BD9DF80430D1
:104190002370F6E744060020F7B50D4606460024D6
:1041A0000DF10701284617468DF80740FFF7D0FFAD
:1041B0002A78BA4207D89DF807003146FFF7BCFBC2
:1041C000204603B0F0BD0120FBE7000013B5032239
:1041D000044601A91420FFF705FB1B494A78227009
:1041E0004AB1012A17D014220021204601F046FFCF
:1041F0000F2323700DE09DF8043023719DF80530E6
:10420000A2605B425B10A3719DF806305B425B10BD
:10421000637102B010BD9DF804309DF905205B422A
:104220005B1023739DF80530002AB6BFA3F5807399
:104230009B089B1063739DF806305B425B10A37371
:104240004B682361E5E700BF4406002007B5022262
:10425000030A8DF8050001A910468DF80430FFF718
:104260009FFA03B05DF804FB0020704701207047FF
:104270000020FFF771BC000010B50D4C2060FFF767
:10428000ABFD0020FFF768FC0120FFF714FD0021C3
:104290000846FFF743FF04210020FFF7F5FD002348
:1042A00018461A461946FFF761FD0020207110BD1F
:1042B0004C06002008B5FFF7CDFBC31EDBB2022B76
:1042C0009ABFC0F10600C0B2002008BDFFF798BD3C
:1042D00008B5FFF730FF00B208BDFFF7FFBAFFF7E0
:1042E000C9BA000038B50C46002340F201211A4635
:1042F00005460846FFF73AFDFFF7C0FD074B0128CA
:1043000007480CBFDC751C74FFF784FE2146284665
:104310000022BDE83840FFF74BBC00BF4C06002030
:104320005406002008B5002318461A461946FFF720
:104330001DFD4FF00400FFF7FDFBBDE80840022023
:10434000FFF736BBFFF770BC37B5144B93F84050FE
:104350000F2805F10D05EDB21AD807281AD8032841
:104360001AD8012894BF0024012400234FF4C071FF
:104370001A460846FFF7FAFC002300930A22294652
:104380002046FFF7ADFE03B0BDE83040FFF76ABC42
:104390000424EAE70324E8E70224E6E74C060020C9
:1043A00010B50C46FFF72CFD2046FFF7EBFABDE8F1
:1043B0001040FFF763BCFFF739BAFFF767BA08B5DB
:1043C000FFF79EF9033008BD10B590B10A4B0122EA
:1043D00019461C68A04206D39C68A04203D201EB98
:1043E000C202107910BD0132162A03F10803F0D180
:1043F000FEE71F20F6E700BF3868000808B540F266
:10440000422100231A460846FFF7B0FC064B93F8FA
:1044100044202AB16FF07F40BDE80840FFF7D2BBCF
:10442000986C8001F8E700BF4C060020012808487E
:1044300005D1084BC17519700830FFF7EBBDC37B80
:10444000012B03D1034B01741970F5E7704700BFCE
:104450004C0600200000002008B5022100231A4667
:104460000846FFF783FC064B93F844202AB16FF00F
:104470007F40BDE80840FFF7BBBB986C8001F8E7C0
:104480004C06002037B54D4C2379002B00F093806B
:10449000FFF7F7F800232371FFF7F5F8B4F84C3075
:1044A000D90707D50120FFF7DBFA236813B11B6892
:1044B00003B19847B4F84C309A072FD594F844507C
:1044C00095B90120FFF7CCFA294640F60210FFF714
:1044D000D1F940F64410FFF701FA40F00200C1B2F2
:1044E00040F64410FFF7C6F9FF220DF107013448EA
:1044F000FFF752FE3348FFF769FE236873B19D68EA
:1045000065B1B4F84C305B0608D494F95D3194F988
:104510005C219DF807102A481A44A847B4F84C308B
:1045200058060AD594F8443013B90120FFF798FAD9
:10453000236813B11B6903B19847B4F84C301906CE
:104540000BD50120FFF78CFA236833B19B6923B1A7
:10455000B4F84C00C0F300209847B4F84C309A05EA
:104560000BD5FFF777FA042819D10120FFF778FA65
:10457000236813B15B6803B19847B4F84C309B06CD
:1045800019D594F8443013B90120FFF769FA23686C
:104590008BB1DB687BB103B0BDE830401847FFF753
:1045A00059FA0528E9D10120FFF75AFA2368002BB0
:1045B000E3D0DB68DFE703B030BD00BF4C0600206E
:1045C0009A0600209C0700200E4B10B5044683F885
:1045D000640183F8650100F017F85CB134214FF4F1
:1045E000E860FFF747F94421BDE8104040F2417010
:1045F000FFF740B914214FF4E860FFF73BF924219D
:10460000F2E700BF4C06002008B50120FFF726FCAA
:10461000064B93F8640193F86521824205D083F834
:104620006501BDE80840FFF7CFBF08BD4C0600207C
:10463000012808B507D00020FFF710FC044B00222A
:1046400083F8652108BDBDE80840FFF7DDBF00BF66
:104650004C06002037B5FFF7D7FF0020FFF7B2FA6E
:10466000002425460120FFF7A3F9FFF764FD00F0C1
:104670000103A3400134202C45EA0305F2D100F0E8
:10468000CBFA28440190FFF74DFE019803B030BDEE
:104690000A2838B50DD8084B03EBC000D0E92C45EB
:1046A00001208840FBF79EFE22462B46FCF72EF8A1
:1046B00038BD00240025F3E738680008000000003A
:1046C0002DE9F04F85B00E469DF84C1000919DF8F5
:1046D0005C109DF84470BDF84090754CDFF8ECA17B
:1046E000BDF83C8084F84410002918BF4FF0000941
:1046F000002F15469DF8482008BFFF228AF80020A9
:10470000834620B1012867D005B0BDE8F08FFFF7E0
:10471000BAFA0B23304684F83C3084F830B0656335
:10472000FFF752FE41F60403A3819AF80030237488
:10473000009B84F83D00002B14BFF223012387F077
:10474000010763744FEAC8080123A374E77384F870
:1047500008B0A4F80A8084F80EB0FFF789FD94F839
:104760003000003818BF0120FFF762FF04F130006D
:10477000FFF7EAFB04F10800FFF74CFC4D4AD2F8C2
:104780000801D2F80C1102AB03C302A8FFF785F9A8
:1047900040F2FF10FFF7B2F92846FBF713FE02467E
:1047A0000B4600204449FBF7B1FF444B0022FBF7C6
:1047B00083FE064648460F46FBF714FE02460B46AC
:1047C00030463946FBF778FE3D4B0022FBF774FE7E
:1047D000FCF734F9A06497E700200193FFF753FA40
:1047E0005FFA89F0FFF75BFA324A019B84F830B038
:1047F00032445FFA85F992F8100184F8409084F809
:10480000410084F842308EBB0B3D012D32D801238C
:10481000A9F10509994584F843B0237238D8B8F155
:104820000B0F35D80C23A3829AF80030E375009B58
:1048300023769DF858306376A775FFF7E5FE21488B
:10484000FFF782FB2048FFF7E5FB637E012B40F278
:10485000367020D1FFF742F800F0FB0140F23670CD
:10486000FFF708F84FF6FF73A3644DE7012E01D15F
:104870000C2DCCD04946FFF70BFF0BA3D3E9002347
:10488000FCF7A0F8B0F1000B18BF4FF0010BBEE72A
:10489000A4F81480C8E7FFF721F840F00400C1B283
:1048A000DCE700BFAFF30080000000A047613040AC
:1048B0004C060020386800080000F03F000020404F
:1048C00000408F407C06002054060020000000209D
:1048D0002DE9F74F0C9EBDF838709DF83C909DF87F
:1048E00040B05B4C8A469046054648B1012847D007
:1048F00040F68900FEF7F2FF40F00400C1B284E008
:104900000B2284F83000184684F83C206663FFF7D9
:104910005BFD41F60403BBF1000FA38114BFF2233A
:1049200001236374FF00012389F00109A37484F853
:104930003D00C4F8388025726781A57384F80F9014
:10494000FFF796FC94F83000003818BF0120FFF7FD
:104950006FFE04F13000FFF7F7FA04F10800FFF7EB
:1049600059FB3C4AD2F80801D2F80C116B4603C33C
:104970006846FFF792F840F2FF10FFF7BFF8B7E77D
:10498000344A9DF8341084F830001A445FFA86F8EF
:1049900092F8100184F8408084F8410084F84210B5
:1049A000002B3FD10B3E012E40D80123A8F1050872
:1049B000984584F84350237244D80B2F42D80C23D7
:1049C000A382254B84F816901B78E3759DF84C3034
:1049D000637684F818B0FFF74BFC94F83000003889
:1049E00018BF0120FFF724FE1C48FFF7ADFA1C4852
:1049F000FFF710FB94F84130062B7FF479AF40F6B7
:104A00008900FEF76BFF00F0FB0140F68900FEF71E
:104A100031FF5046FEF7B6FF149BC4F8683103B06F
:104A2000BDE8F08F012B01D10C2EBED04146FFF71F
:104A30002FFE05A3D3E90023FBF7C4FF051E18BF13
:104A40000125B2E7A782BCE7000000A04761304023
:104A50004C06002038680008000000207C0600207A
:104A600054060020000000002DE9F74F884628B1C9
:104A700001283DD0002003B0BDE8F08F5A4A9FEDD9
:104A80005B6A517B538903EBD10307EE903AD37BEA
:104A9000F8EEE77A002B07EE108AF7EE006A08BFFF
:104AA000F0EE466A77EEA67AB8EEC77A537C77EED8
:104AB000877A022BB0EE007A18BFB0EE467A77EE16
:104AC000877AB2EE007A67EE877A92ED0D7AB8EEC9
:104AD000477AC7EE876ADFED467A66EEA77A17EE69
:104AE000900AFBF791FC01F06FFDFBF7A7FFC2E70F
:104AF000DFF8F4A09AF840B09AF841005946FFF761
:104B0000C7FDBAF8143007EE903AF8EEE77AB1EE46
:104B1000017A77EE877A04460D4617EE900AFBF786
:104B200073FC22462B46FBF7C7FC9AF81630064664
:104B3000CBEB48089AF81800012B08F1070808EB9E
:104B400080080CBF14200020C0EB88000F46FBF744
:104B500049FC9AF84330002B804614BF0220002005
:104B6000ABEB000080008946FBF73CFC02460B469D
:104B700040464946FBF7CAFD01F02EFC02469AF872
:104B8000420000F003000B460430CDE90023FBF7A0
:104B900029FCDDE90023FBF78FFC0022002380467F
:104BA0008946FBF719FF18B94FF000084FF00009CC
:104BB000104B002240464946FBF7C8FA22462B46D6
:104BC000FBF77AFC32463B46FBF7C0FA04A3D3E975
:104BD0000023FBF7BBFA01F07BFC86E7AFF3008014
:104BE000000000E0CEF7EF3F4C0600200000000080
:104BF00000007A440000204010B5064C01232371C8
:104C0000FFF7D0F8A4F84C00BDE810404FF6FF7055
:104C1000FFF71CBB4C060020074B08491A6843F2FB
:104C2000390001FB020018606FF00043B0FBF3F3A2
:104C3000C3EBC373C01A7047040000206D4EC64119
:104C400008B5012000F050FE6420FDF733FABDE8FE
:104C50000840FDF7C7BF00004FF6FD73984213B53B
:104C600004460AD9FEF7EAF9114B124900940246AC
:104C70001148FDF799F902B010BD80B9FEF7DEF9D1
:104C80000B4B0E49009402460D48FDF78DF90D4B74
:104C90000120DC8002B0BDE8104000F025BEFEF728
:104CA000CDF9034B0849009402460848EDE700BFE0
:104CB000626A00088C6D00086C6A00084B6D000881
:104CC0008E6A00089C0C0020DE690008B26A0008A9
:104CD0002DE9F0412E4C2F4E2F4FDFF8CC808AB0BB
:104CE000FEF7ACF9A37A0293637A0193237A2A49F7
:104CF00000930246274B2948FDF756F9FEF79EF927
:104D0000238C0393A3890293A388019323782249D8
:104D1000009302461F4B2248FDF746F9FEF78EF935
:104D2000A3780193E378009302461A4B1A491D4871
:104D3000FDF73AF90025A38E13B3FEF77FF994F837
:104D40003D30099394F83C30089394F83B30079336
:104D500094F83A30069394F83930059394F8383043
:104D6000049394F83730039394F836300293A38E6B
:104D70000246CDE90053394633464046FDF714F963
:104D80000135202D04F11404D5D10AB0BDE8F0811D
:104D9000CC090020626A0008DE690008CB6A0008BE
:104DA000046B0008436B0008736B0008012813B5FF
:104DB0000C4C12D16072FEF741F9637A0A490093F4
:104DC00002460A4B0A48FDF7EFF8012000F08CFD7F
:104DD00002B0BDE8104001F09DB80228EAD00023DF
:104DE0006372E8E7CC090020DE690008626A000807
:104DF000BC6B000800F0DABB08B5FEF71FF9094BE1
:104E0000094902460948FDF7CFF80948FDF758F966
:104E10000848FDF755F96420FDF74CF9BDE8084056
:104E2000FDF7E0BE626A00084B6D0008D56B000814
:104E300000C0000800D00008642813B504460AD951
:104E4000FEF7FCF80A4B0B49009402460A48FDF7AE
:104E5000ABF802B010BDFEF7F1F8054B074900941E
:104E600002460748FDF7A0F8064B5C70F1E700BF6B
:104E7000626A00088C6D0008EB6B0008DE690008B0
:104E80000D6C00089C0C0020022813B504460AD9BA
:104E9000FEF7D4F80C4B0D49009402460C48FDF780
:104EA00083F802B010BDFEF7C9F8074B094900941A
:104EB00002460948FDF778F8084B01209C7002B0C3
:104EC000BDE8104000F010BD626A00088C6D00085B
:104ED000266C0008DE690008436C00089C0C00206A
:104EE000C31F052B13B504460AD9FEF7A7F80D4BCF
:104EF0000D49009402460D48FDF756F802B010BD6A
:104F0000FEF79CF8074B0A49009402460948FDF752
:104F10004BF8094B0120DC7002B0BDE8104000F0F6
:104F2000E3BC00BF626A00088C6D0008576C000883
:104F3000DE690008746C00089C0C0020162813B56C
:104F400004460AD9FEF77AF8084B0949009402464C
:104F50000848FDF729F802B010BDFEF76FF8034BC3
:104F60000549009402460548F3E700BF626A00085D
:104F70008C6D0008886C0008DE690008AA6C0008C7
:104F8000421E4FF6FC739A4213B504460AD9FEF747
:104F900055F80D4B0D49009402460D48FDF704F8F5
:104FA00002B010BDFEF74AF8074B0A4900940246CA
:104FB0000948FCF7F9FF094B01209C8002B0BDE8CD
:104FC000104000F091BC00BF626A00088C6D0008C0
:104FD000C36C0008DE690008E56C00089C0C00202A
:104FE00020281FB504460AD9FEF728F8114B1249AC
:104FF000009402461148FCF7D7FF04B010BDFEF73D
:105000001DF80C4B0E49009402460E48FCF7CCFFED
:10501000E0B2039000F0A2F9039800F0CBFD0A483B
:105020001422002102FB040004B0BDE8104001F08E
:1050300025B800BF626A00088C6D0008FE6C00088D
:10504000DE6900081E6D0008000A00202DE9F3410A
:10505000DFF84C8005460E46002458F8041B0191E9
:105060000846FBF74DFF019907460246304601F01E
:1050700057F858B9F35DE4B2F01973B100F0A2FF2C
:10508000686028462C7002B0BDE8F08101340C2C19
:10509000E3D14FF0FF30FF24F2E74FF0FF30EFE7AE
:1050A0000800002013B50246B0F80100CB1E012411
:1050B00040BA12F8031B0094DBB280B200F0B4FADD
:1050C00002B010BD82B002AB03E903009DF80020DE
:1050D000FF2A06D0044B03EB820308461B6B02B089
:1050E000184702B0704700BF0800002013B56C4697
:1050F00001462046FFF7AAFF9DF80030FF2B06D09F
:1051000094E80300FFF7DEFF012002B010BD00208D
:10511000FBE700002DE9F041454D6B7A012B8AB089
:1051200060D14448434C00F06DFEFF285DD014224E
:10513000342312FB00300021284400F09FFF00F0D0
:1051400041FEFF2880464DD006B206EB8606B6002B
:10515000142706F134003A460021284400F08EFF5F
:1051600007FB0852344F97F8023282F83E30B7F806
:105170000C32A2F8403036361E235364D7F80B3178
:10518000AB51AA1963685360B7F80642AB881C4458
:10519000A4B24FF6FC76204600F022FEFF2843D151
:1051A000631E9BB2B3423FD8230A8DF820302B7880
:1051B0008DF822301420AB788DF8233000FB08588E
:1051C000EB788DF824300123A8F8344000938DF853
:1051D0002530B7F806028DF82140062308AA0221DF
:1051E00000F022FA0AB0BDE8F0811449204600F030
:1051F00089FE0028A3D1FDF721FFE3790793A37966
:1052000006936379059323790493E3780393A37852
:10521000029363780193237800930246084B09496F
:105220000948FCF7C1FE8AE70134A4B2B3E700BF26
:10523000CC090020C3080020B8070020860C0020FD
:10524000A26D0008DE690008B16D0008F7B5154DC4
:105250006F7A012F10D1144EB6F8060200F0C0FD8F
:10526000FF2804464FF00003B6F8060206D100936B
:105270001A46112100F0D8F903B0F0BD142202FB48
:105280000455B6F80C22A5F840206B641A46009726
:10529000042100F0C9F9204603B0BDE8F04000F059
:1052A0002BBC00BFCC090020B8070020104B73B501
:1052B000B3F806020F4E00F093FD142504460123B7
:1052C00005FB0060009300231A462946808E00F0FB
:1052D000ABF9342015FB04002A460021304400F0CD
:1052E000CDFE204602B0BDE8704000F063BC00BFB8
:1052F000B8070020CC0900201FB5124C94F80A31E1
:10530000032B07D8FDF79AFE0F4B104902461048B1
:10531000FCF74AFEFDF792FE94F80D1194F80E3159
:1053200003EB01231BB2029394F80C310193B4F800
:10533000063200930246044B06490748FCF734FE48
:1053400004B010BDB8070020A26D00088C6D0008E5
:10535000006E0008DE690008256E0008F7B50D4DE7
:1053600014270026044607FB0050009633463246B9
:10537000808E112100F058F907FB04503A4631465F
:10538000343000F07BFE204603B0BDE8F04000F072
:1053900011BC00BFCC09002008B50F4B002283F8D8
:1053A0000E220E4B0E4A1978517099895888D18077
:1053B00099889180508002221A81012000F094FA8D
:1053C000FDF73CFE074B084902460848FCF7ECFD98
:1053D000BDE8084000F09EBDB8070020CC090020C1
:1053E0009C0C0020646E0008DE690008736E0008E3
:1053F00008B50948094BC288DA8000219A800181EA
:105400001422203000F03AFE012000F06DFABDE8D1
:10541000084000F07FBD00BFCC0900209C0C00209C
:1054200010B51C4B1C4A93F80B0193F80C111B4C44
:1054300001EB0021D18093F80D0193F80E1101EBDF
:105440000021918093F80F115170B3F81011518021
:1054500093F8132193F8143186B003EB0223012053
:10546000238400F041FAFDF7E9FDA3890493A388A2
:10547000039323780293A3780193E3780093024681
:10548000074B08490848FCF78FFD06B0BDE81040FF
:1054900000F040BDB80700209C0C0020CC09002083
:1054A000646E0008DE6900088F6E000807B50B4ABD
:1054B0001389B3F5007F0DD1002300930E3208232A
:1054C00001214FF6FE7000F0AFF8054B40F20132BB
:1054D000A3F80E2203B05DF804FB00BFCC09002046
:1054E000B807002007B500230093054A08230321CD
:1054F0004FF6FE7000F098F803B05DF804FB00BFB3
:10550000DA09002010B5224B93F80A21062A86B04A
:1055100032D193F8041193F805211E4C02EB0122BD
:10552000228493F80B1193F80C2102EB0122A28143
:10553000B3F80422A28093F80D212270B3F80E2153
:10554000628002222272032283F80E22FFF7CAFF32
:10555000FDF774FDA3890493A38803932378029332
:10556000A3780193E378009302460B4B0B490C4858
:10557000FCF71AFD06B010BDFDF760FD064B0949AA
:105580000246094806B0BDE81040FCF70DBD00BF5B
:10559000B8070020CC090020646E0008DE6900080E
:1055A000E06E00088C6D0008276F000873B50C4E84
:1055B00000243546009435F8200F23462246132157
:1055C00000F032F814222146284600F057FD012051
:1055D000347200F089F902B0BDE8704000F09ABC66
:1055E000CC09002000B50F48037A022B89B015D1F1
:1055F0007B238DF80C3064238DF80D30B0F92C30FE
:105600008DF80F30002390F92D2000938DF80E2097
:10561000008C042303AA202100F006F809B05DF8ED
:1056200004FB00BFCC090020F7B52C4C1D467B23A2
:105630002370B4F81832A3700646180AB4F8203262
:1056400060700F469DF820102371180A330AE0702D
:105650006371A67179B394F80B32E371204B277212
:10566000657251198A422DD105F10A01C9B21B4850
:1056700000F0E6FB63190B35987284F80051FDF7D2
:10568000DDFCCDE900670246164B17491748184E56
:10569000FCF78AFC002594F80021EBB29A4216D858
:1056A0001448FCF781FC94F800110C4803B0BDE8E5
:1056B000F04000F069BC94F8C834E371013384F819
:1056C000C834CBE712F8010B03F8010BCAE7E15C21
:1056D0003046FCF769FC0135DDE700BFB807002064
:1056E000C2070020496F0008DE690008536F0008F8
:1056F0007A6F00084F70000810B5424C00F0AAFB0A
:1057000094F801120139C9B204F2011000F098FBBB
:1057100094F80132234493F80031834250D194F835
:105720000A32022B24D194F81D22022A20D1B4F887
:105730000812B4F8202291421AD194F80A32152B9B
:1057400010D88BB1013B142B0ED8DFE803F03A3EA2
:1057500042460D0D0D0D0D0D0D0D0D0D0D0D4A0DCE
:105760004E0D5200202B48D0BDE8104000F00ABC7E
:10577000B4F80402B4F81812884205D04FF6FE724D
:10578000904201D091421BD1012B03D194F81D32DC
:10579000012BD2D0B4F80832B4F820229A4203D0B8
:1057A0004FF6FE7293420BD1B4F8060200F018FBDC
:1057B000FF28C2D1B4F80622B4F8CC349A42BCD047
:1057C00010BDBDE81040FFF7A5BCBDE81040FFF7D5
:1057D00099BEBDE81040FFF739BDBDE81040FFF7A6
:1057E000DBBDBDE81040FFF703BEBDE81040FFF78A
:1057F0005DBDBDE81040FFF713BEBDE81040FFF7E8
:105800007BBD00BFB807002038B5334C94F80E229A
:105810000ABBB4F81C32B3F5007F1CD1FFF746FE7B
:1058200094F8E034002B4FD12C481822002100F0CE
:1058300025FC2B4C0025616C39B10139616421B91B
:10584000142204F1340000F019FC0535A02D04F1F8
:105850001404F0D138BD94F80F52002DE0D0013D72
:10586000EDB284F80F52002ADAD0002DD8D194F886
:1058700010320133DBB2032B84F8103219D9032A1A
:1058800012D118481422294600F0F8FBB4F8EA3483
:10589000A4F82032B4F8E834A4F8183284F81C5282
:1058A000FFF720FE02230CE084F80E5284F8105219
:1058B000B6E7012A02D0032AF2D0B1E7FFF7F6FDDE
:1058C000032384F80F32ABE7013BDBB284F8E0340A
:1058D000002BAED1A8E700BFB8070020840C002041
:1058E000CC090020EC09002030B5294C85B00546D4
:1058F00010220021684600F0C1FB2388B3F5FA7F2F
:1059000007D3002323482380FCF7DAFB0120FFF7AD
:10591000EBFF012D3AD1204B8DF80050DA7802F0E0
:105920000F028DF801209A7802F003028DF8022010
:105930001A4A517A8DF80310117A8DF804105978AB
:1059400001F07F018DF80510D9888DF80710080A3D
:10595000118C8DF80600080A8DF8080020889B88B5
:105960008DF8091000F18070190A00F5C0508DF80B
:105970000A108DF80B306946937A8DF80C3010229E
:10598000C000FCF7CFFB23880233238005B030BD75
:10599000A80C002000C000089C0C0020CC090020AE
:1059A0007FB54D4C4D4802236372002303804C4B5E
:1059B0000188B1F5FA7F63D3DA78D988073A052AE6
:1059C00084BF0722DA709A78022A84BF02229A7072
:1059D0005A78642A84BF00225A70227A012A84BF2E
:1059E00000222272627A022A84BF002262724FF67B
:1059F000FD72914284BFE288DA809A88013A92B2BD
:105A00004FF6FD718A4284BFE2889A805A782270EC
:105A1000DA88A2819A885B886380637AA280022BED
:105A200004BF4FF6FE73A380FDF708FBA37A029331
:105A3000637A0193237A2B49009302462A4B2B4821
:105A4000FCF7B2FAFDF7FAFA238C0393A3890293C9
:105A5000A38801932378234900930246224B2448CC
:105A6000FCF7A2FAFDF7EAFAA3780193E378009332
:105A700002461D4B1B491F48FCF796FA04B070BD47
:105A800001F1807202F5C052D2001578012D93D138
:105A9000557805F00F05DD70957805F003059D70CC
:105AA000D578657215792572557905F07F055D7099
:105AB0009679D57905EB0625DD80167A557A05EBC2
:105AC00006252584967AD57A05EB06259D80127BDE
:105AD000A272023101806BE7CC090020A80C0020E3
:105AE0009C0C0020DE690008806F00088A6F0008A7
:105AF000C46F0008436B000870B58AB005462022C9
